{
  "_format": "hh-sol-artifact-1",
  "contractName": "PromiseToFriends",
  "sourceName": "contracts/PromiseToFriends.sol",
  "abi": [
    {
      "anonymous": false,
      "inputs": [
        {
          "indexed": true,
          "internalType": "address",
          "name": "to",
          "type": "address"
        },
        {
          "indexed": true,
          "internalType": "address",
          "name": "from",
          "type": "address"
        },
        {
          "indexed": true,
          "internalType": "enum PromiseToFriends.PromiseStatus",
          "name": "status",
          "type": "uint8"
        },
        {
          "indexed": false,
          "internalType": "uint256",
          "name": "promiseId",
          "type": "uint256"
        },
        {
          "indexed": false,
          "internalType": "uint256",
          "name": "amount",
          "type": "uint256"
        },
        {
          "indexed": false,
          "internalType": "string",
          "name": "message",
          "type": "string"
        },
        {
          "indexed": false,
          "internalType": "uint256",
          "name": "expireAt",
          "type": "uint256"
        }
      ],
      "name": "PromiseUpdate",
      "type": "event"
    },
    {
      "inputs": [],
      "name": "completionSize",
      "outputs": [
        {
          "internalType": "uint256",
          "name": "_value",
          "type": "uint256"
        }
      ],
      "stateMutability": "view",
      "type": "function"
    },
    {
      "inputs": [
        {
          "internalType": "address",
          "name": "_to",
          "type": "address"
        },
        {
          "internalType": "string",
          "name": "_message",
          "type": "string"
        },
        {
          "internalType": "uint256",
          "name": "_expireAt",
          "type": "uint256"
        }
      ],
      "name": "createPromise",
      "outputs": [],
      "stateMutability": "payable",
      "type": "function"
    },
    {
      "inputs": [],
      "name": "failureSize",
      "outputs": [
        {
          "internalType": "uint256",
          "name": "_value",
          "type": "uint256"
        }
      ],
      "stateMutability": "view",
      "type": "function"
    },
    {
      "inputs": [],
      "name": "getAllPromises",
      "outputs": [
        {
          "components": [
            {
              "internalType": "uint256",
              "name": "id",
              "type": "uint256"
            },
            {
              "internalType": "address payable",
              "name": "to",
              "type": "address"
            },
            {
              "internalType": "address payable",
              "name": "from",
              "type": "address"
            },
            {
              "internalType": "uint256",
              "name": "amount",
              "type": "uint256"
            },
            {
              "internalType": "string",
              "name": "message",
              "type": "string"
            },
            {
              "internalType": "uint256",
              "name": "expireAt",
              "type": "uint256"
            },
            {
              "internalType": "enum PromiseToFriends.PromiseStatus",
              "name": "status",
              "type": "uint8"
            },
            {
              "internalType": "bool",
              "name": "isSettled",
              "type": "bool"
            }
          ],
          "internalType": "struct PromiseToFriends.Promise[]",
          "name": "",
          "type": "tuple[]"
        }
      ],
      "stateMutability": "view",
      "type": "function"
    },
    {
      "inputs": [
        {
          "internalType": "uint256",
          "name": "_id",
          "type": "uint256"
        }
      ],
      "name": "getPromiseById",
      "outputs": [
        {
          "components": [
            {
              "internalType": "uint256",
              "name": "id",
              "type": "uint256"
            },
            {
              "internalType": "address payable",
              "name": "to",
              "type": "address"
            },
            {
              "internalType": "address payable",
              "name": "from",
              "type": "address"
            },
            {
              "internalType": "uint256",
              "name": "amount",
              "type": "uint256"
            },
            {
              "internalType": "string",
              "name": "message",
              "type": "string"
            },
            {
              "internalType": "uint256",
              "name": "expireAt",
              "type": "uint256"
            },
            {
              "internalType": "enum PromiseToFriends.PromiseStatus",
              "name": "status",
              "type": "uint8"
            },
            {
              "internalType": "bool",
              "name": "isSettled",
              "type": "bool"
            }
          ],
          "internalType": "struct PromiseToFriends.Promise",
          "name": "",
          "type": "tuple"
        }
      ],
      "stateMutability": "view",
      "type": "function"
    },
    {
      "inputs": [],
      "name": "getStats",
      "outputs": [
        {
          "internalType": "uint256",
          "name": "",
          "type": "uint256"
        },
        {
          "internalType": "uint256",
          "name": "",
          "type": "uint256"
        },
        {
          "internalType": "uint256",
          "name": "",
          "type": "uint256"
        }
      ],
      "stateMutability": "view",
      "type": "function"
    },
    {
      "inputs": [
        {
          "internalType": "uint256",
          "name": "",
          "type": "uint256"
        }
      ],
      "name": "idToPromise",
      "outputs": [
        {
          "internalType": "uint256",
          "name": "id",
          "type": "uint256"
        },
        {
          "internalType": "address payable",
          "name": "to",
          "type": "address"
        },
        {
          "internalType": "address payable",
          "name": "from",
          "type": "address"
        },
        {
          "internalType": "uint256",
          "name": "amount",
          "type": "uint256"
        },
        {
          "internalType": "string",
          "name": "message",
          "type": "string"
        },
        {
          "internalType": "uint256",
          "name": "expireAt",
          "type": "uint256"
        },
        {
          "internalType": "enum PromiseToFriends.PromiseStatus",
          "name": "status",
          "type": "uint8"
        },
        {
          "internalType": "bool",
          "name": "isSettled",
          "type": "bool"
        }
      ],
      "stateMutability": "view",
      "type": "function"
    },
    {
      "inputs": [],
      "name": "promiseIdCounter",
      "outputs": [
        {
          "internalType": "uint256",
          "name": "_value",
          "type": "uint256"
        }
      ],
      "stateMutability": "view",
      "type": "function"
    },
    {
      "inputs": [
        {
          "internalType": "uint256",
          "name": "_id",
          "type": "uint256"
        }
      ],
      "name": "verifyPromiseCompletion",
      "outputs": [
        {
          "components": [
            {
              "internalType": "uint256",
              "name": "id",
              "type": "uint256"
            },
            {
              "internalType": "address payable",
              "name": "to",
              "type": "address"
            },
            {
              "internalType": "address payable",
              "name": "from",
              "type": "address"
            },
            {
              "internalType": "uint256",
              "name": "amount",
              "type": "uint256"
            },
            {
              "internalType": "string",
              "name": "message",
              "type": "string"
            },
            {
              "internalType": "uint256",
              "name": "expireAt",
              "type": "uint256"
            },
            {
              "internalType": "enum PromiseToFriends.PromiseStatus",
              "name": "status",
              "type": "uint8"
            },
            {
              "internalType": "bool",
              "name": "isSettled",
              "type": "bool"
            }
          ],
          "internalType": "struct PromiseToFriends.Promise",
          "name": "",
          "type": "tuple"
        }
      ],
      "stateMutability": "payable",
      "type": "function"
    }
  ],
  "bytecode": "0x608060405234801561001057600080fd5b506120eb806100206000396000f3fe6080604052600436106100865760003560e01c80637a586b9d116100595780637a586b9d1461012d578063846cbf5514610158578063c59d484714610195578063d33f204d146101c2578063ec2e9fd61461020657610086565b80630f90ca0e1461008b578063117b4c39146100b6578063123888dc146100e15780633b1852e314610111575b600080fd5b34801561009757600080fd5b506100a0610231565b6040516100ad919061121d565b60405180910390f35b3480156100c257600080fd5b506100cb61023d565b6040516100d8919061121d565b60405180910390f35b6100fb60048036038101906100f69190611278565b610249565b60405161010891906114c7565b60405180910390f35b61012b6004803603810190610126919061165c565b610776565b005b34801561013957600080fd5b50610142610c05565b60405161014f919061183d565b60405180910390f35b34801561016457600080fd5b5061017f600480360381019061017a9190611278565b610e17565b60405161018c91906114c7565b60405180910390f35b3480156101a157600080fd5b506101aa610ff7565b6040516101b99392919061185f565b60405180910390f35b3480156101ce57600080fd5b506101e960048036038101906101e49190611278565b611025565b6040516101fd98979695949392919061190d565b60405180910390f35b34801561021257600080fd5b5061021b61114f565b604051610228919061121d565b60405180910390f35b60048060000154905081565b60008060000154905081565b61025161117f565b600060016000848152602001908152602001600020905060008160000154036102af576040517f08c379a00000000000000000000000000000000000000000000000000000000081526004016102a6906119de565b60405180910390fd5b3373ffffffffffffffffffffffffffffffffffffffff168160010160009054906101000a900473ffffffffffffffffffffffffffffffffffffffff1673ffffffffffffffffffffffffffffffffffffffff1614610341576040517f08c379a000000000000000000000000000000000000000000000000000000000815260040161033890611a96565b60405180910390fd5b8060060160019054906101000a900460ff1615610393576040517f08c379a000000000000000000000000000000000000000000000000000000000815260040161038a90611b02565b60405180910390fd5b80600301544710156103a8576103a7611b22565b5b60018160060160016101000a81548160ff0219169083151502179055506000428260050154101590508015610455576103e1600361115b565b8160020160009054906101000a900473ffffffffffffffffffffffffffffffffffffffff1673ffffffffffffffffffffffffffffffffffffffff166108fc83600301549081150290604051600060405180830381858888f1935050505015801561044f573d6000803e3d6000fd5b506104cf565b61045f600461115b565b8160010160009054906101000a900473ffffffffffffffffffffffffffffffffffffffff1673ffffffffffffffffffffffffffffffffffffffff166108fc83600301549081150290604051600060405180830381858888f193505050501580156104cd573d6000803e3d6000fd5b505b806104db5760026104de565b60015b60028111156104f0576104ef611385565b5b8260020160009054906101000a900473ffffffffffffffffffffffffffffffffffffffff1673ffffffffffffffffffffffffffffffffffffffff168360010160009054906101000a900473ffffffffffffffffffffffffffffffffffffffff1673ffffffffffffffffffffffffffffffffffffffff167ff8b5a6dfb2b441afa1b1e642cc5d376ace1347c4522cbb626c7e782937e91beb8786600301548760040188600501546040516105a69493929190611c4a565b60405180910390a48160405180610100016040529081600082015481526020016001820160009054906101000a900473ffffffffffffffffffffffffffffffffffffffff1673ffffffffffffffffffffffffffffffffffffffff1673ffffffffffffffffffffffffffffffffffffffff1681526020016002820160009054906101000a900473ffffffffffffffffffffffffffffffffffffffff1673ffffffffffffffffffffffffffffffffffffffff1673ffffffffffffffffffffffffffffffffffffffff1681526020016003820154815260200160048201805461068b90611b80565b80601f01602080910402602001604051908101604052809291908181526020018280546106b790611b80565b80156107045780601f106106d957610100808354040283529160200191610704565b820191906000526020600020905b8154815290600101906020018083116106e757829003601f168201915b50505050508152602001600582015481526020016006820160009054906101000a900460ff16600281111561073c5761073b611385565b5b600281111561074e5761074d611385565b5b81526020016006820160019054906101000a900460ff16151515158152505092505050919050565b600073ffffffffffffffffffffffffffffffffffffffff168373ffffffffffffffffffffffffffffffffffffffff16036107e5576040517f08c379a00000000000000000000000000000000000000000000000000000000081526004016107dc90611ce2565b60405180910390fd5b60003411610828576040517f08c379a000000000000000000000000000000000000000000000000000000000815260040161081f90611d4e565b60405180910390fd5b80421061086a576040517f08c379a000000000000000000000000000000000000000000000000000000000815260040161086190611de0565b60405180910390fd5b610874600061115b565b60006108806000611171565b905060006040518061010001604052808381526020018673ffffffffffffffffffffffffffffffffffffffff1681526020013373ffffffffffffffffffffffffffffffffffffffff168152602001348152602001858152602001848152602001600060028111156108f4576108f3611385565b5b815260200160001515815250905080600160008481526020019081526020016000206000820151816000015560208201518160010160006101000a81548173ffffffffffffffffffffffffffffffffffffffff021916908373ffffffffffffffffffffffffffffffffffffffff16021790555060408201518160020160006101000a81548173ffffffffffffffffffffffffffffffffffffffff021916908373ffffffffffffffffffffffffffffffffffffffff1602179055506060820151816003015560808201518160040190816109cd9190611f97565b5060a0820151816005015560c08201518160060160006101000a81548160ff02191690836002811115610a0357610a02611385565b5b021790555060e08201518160060160016101000a81548160ff02191690831515021790555090505060028190806001815401808255809150506001900390600052602060002090600702016000909190919091506000820151816000015560208201518160010160006101000a81548173ffffffffffffffffffffffffffffffffffffffff021916908373ffffffffffffffffffffffffffffffffffffffff16021790555060408201518160020160006101000a81548173ffffffffffffffffffffffffffffffffffffffff021916908373ffffffffffffffffffffffffffffffffffffffff160217905550606082015181600301556080820151816004019081610b0e9190611f97565b5060a0820151816005015560c08201518160060160006101000a81548160ff02191690836002811115610b4457610b43611385565b5b021790555060e08201518160060160016101000a81548160ff021916908315150217905550505060006002811115610b7f57610b7e611385565b5b816040015173ffffffffffffffffffffffffffffffffffffffff16826020015173ffffffffffffffffffffffffffffffffffffffff167ff8b5a6dfb2b441afa1b1e642cc5d376ace1347c4522cbb626c7e782937e91beb85856060015186608001518760a00151604051610bf69493929190612069565b60405180910390a45050505050565b60606002805480602002602001604051908101604052809291908181526020016000905b82821015610e0e578382906000526020600020906007020160405180610100016040529081600082015481526020016001820160009054906101000a900473ffffffffffffffffffffffffffffffffffffffff1673ffffffffffffffffffffffffffffffffffffffff1673ffffffffffffffffffffffffffffffffffffffff1681526020016002820160009054906101000a900473ffffffffffffffffffffffffffffffffffffffff1673ffffffffffffffffffffffffffffffffffffffff1673ffffffffffffffffffffffffffffffffffffffff16815260200160038201548152602001600482018054610d1d90611b80565b80601f0160208091040260200160405190810160405280929190818152602001828054610d4990611b80565b8015610d965780601f10610d6b57610100808354040283529160200191610d96565b820191906000526020600020905b815481529060010190602001808311610d7957829003601f168201915b50505050508152602001600582015481526020016006820160009054906101000a900460ff166002811115610dce57610dcd611385565b5b6002811115610de057610ddf611385565b5b81526020016006820160019054906101000a900460ff16151515158152505081526020019060010190610c29565b50505050905090565b610e1f61117f565b6001600083815260200190815260200160002060405180610100016040529081600082015481526020016001820160009054906101000a900473ffffffffffffffffffffffffffffffffffffffff1673ffffffffffffffffffffffffffffffffffffffff1673ffffffffffffffffffffffffffffffffffffffff1681526020016002820160009054906101000a900473ffffffffffffffffffffffffffffffffffffffff1673ffffffffffffffffffffffffffffffffffffffff1673ffffffffffffffffffffffffffffffffffffffff16815260200160038201548152602001600482018054610f0e90611b80565b80601f0160208091040260200160405190810160405280929190818152602001828054610f3a90611b80565b8015610f875780601f10610f5c57610100808354040283529160200191610f87565b820191906000526020600020905b815481529060010190602001808311610f6a57829003601f168201915b50505050508152602001600582015481526020016006820160009054906101000a900460ff166002811115610fbf57610fbe611385565b5b6002811115610fd157610fd0611385565b5b81526020016006820160019054906101000a900460ff1615151515815250509050919050565b60008060006110066000611171565b6110106003611171565b61101a6004611171565b925092509250909192565b60016020528060005260406000206000915090508060000154908060010160009054906101000a900473ffffffffffffffffffffffffffffffffffffffff16908060020160009054906101000a900473ffffffffffffffffffffffffffffffffffffffff16908060030154908060040180546110a090611b80565b80601f01602080910402602001604051908101604052809291908181526020018280546110cc90611b80565b80156111195780601f106110ee57610100808354040283529160200191611119565b820191906000526020600020905b8154815290600101906020018083116110fc57829003601f168201915b5050505050908060050154908060060160009054906101000a900460ff16908060060160019054906101000a900460ff16905088565b60038060000154905081565b6001816000016000828254019250508190555050565b600081600001549050919050565b60405180610100016040528060008152602001600073ffffffffffffffffffffffffffffffffffffffff168152602001600073ffffffffffffffffffffffffffffffffffffffff168152602001600081526020016060815260200160008152602001600060028111156111f5576111f4611385565b5b81526020016000151581525090565b6000819050919050565b61121781611204565b82525050565b6000602082019050611232600083018461120e565b92915050565b6000604051905090565b600080fd5b600080fd5b61125581611204565b811461126057600080fd5b50565b6000813590506112728161124c565b92915050565b60006020828403121561128e5761128d611242565b5b600061129c84828501611263565b91505092915050565b6112ae81611204565b82525050565b600073ffffffffffffffffffffffffffffffffffffffff82169050919050565b60006112df826112b4565b9050919050565b6112ef816112d4565b82525050565b600081519050919050565b600082825260208201905092915050565b60005b8381101561132f578082015181840152602081019050611314565b60008484015250505050565b6000601f19601f8301169050919050565b6000611357826112f5565b6113618185611300565b9350611371818560208601611311565b61137a8161133b565b840191505092915050565b7f4e487b7100000000000000000000000000000000000000000000000000000000600052602160045260246000fd5b600381106113c5576113c4611385565b5b50565b60008190506113d6826113b4565b919050565b60006113e6826113c8565b9050919050565b6113f6816113db565b82525050565b60008115159050919050565b611411816113fc565b82525050565b60006101008301600083015161143060008601826112a5565b50602083015161144360208601826112e6565b50604083015161145660408601826112e6565b50606083015161146960608601826112a5565b5060808301518482036080860152611481828261134c565b91505060a083015161149660a08601826112a5565b5060c08301516114a960c08601826113ed565b5060e08301516114bc60e0860182611408565b508091505092915050565b600060208201905081810360008301526114e18184611417565b905092915050565b60006114f4826112b4565b9050919050565b611504816114e9565b811461150f57600080fd5b50565b600081359050611521816114fb565b92915050565b600080fd5b600080fd5b7f4e487b7100000000000000000000000000000000000000000000000000000000600052604160045260246000fd5b6115698261133b565b810181811067ffffffffffffffff8211171561158857611587611531565b5b80604052505050565b600061159b611238565b90506115a78282611560565b919050565b600067ffffffffffffffff8211156115c7576115c6611531565b5b6115d08261133b565b9050602081019050919050565b82818337600083830152505050565b60006115ff6115fa846115ac565b611591565b90508281526020810184848401111561161b5761161a61152c565b5b6116268482856115dd565b509392505050565b600082601f83011261164357611642611527565b5b81356116538482602086016115ec565b91505092915050565b60008060006060848603121561167557611674611242565b5b600061168386828701611512565b935050602084013567ffffffffffffffff8111156116a4576116a3611247565b5b6116b08682870161162e565b92505060406116c186828701611263565b9150509250925092565b600081519050919050565b600082825260208201905092915050565b6000819050602082019050919050565b60006101008301600083015161171060008601826112a5565b50602083015161172360208601826112e6565b50604083015161173660408601826112e6565b50606083015161174960608601826112a5565b5060808301518482036080860152611761828261134c565b91505060a083015161177660a08601826112a5565b5060c083015161178960c08601826113ed565b5060e083015161179c60e0860182611408565b508091505092915050565b60006117b383836116f7565b905092915050565b6000602082019050919050565b60006117d3826116cb565b6117dd81856116d6565b9350836020820285016117ef856116e7565b8060005b8581101561182b578484038952815161180c85826117a7565b9450611817836117bb565b925060208a019950506001810190506117f3565b50829750879550505050505092915050565b6000602082019050818103600083015261185781846117c8565b905092915050565b6000606082019050611874600083018661120e565b611881602083018561120e565b61188e604083018461120e565b949350505050565b61189f816112d4565b82525050565b600082825260208201905092915050565b60006118c1826112f5565b6118cb81856118a5565b93506118db818560208601611311565b6118e48161133b565b840191505092915050565b6118f8816113db565b82525050565b611907816113fc565b82525050565b600061010082019050611923600083018b61120e565b611930602083018a611896565b61193d6040830189611896565b61194a606083018861120e565b818103608083015261195c81876118b6565b905061196b60a083018661120e565b61197860c08301856118ef565b61198560e08301846118fe565b9998505050505050505050565b7f50726f6d6973652063616e6e6f7420626520666f756e642e0000000000000000600082015250565b60006119c86018836118a5565b91506119d382611992565b602082019050919050565b600060208201905081810360008301526119f7816119bb565b9050919050565b7f50726f6d6973652063616e206f6e6c792062652076657269666965642062792060008201527f74686520757365722077686f20697320676976656e207468652070726f6d697360208201527f652e000000000000000000000000000000000000000000000000000000000000604082015250565b6000611a806042836118a5565b9150611a8b826119fe565b606082019050919050565b60006020820190508181036000830152611aaf81611a73565b9050919050565b7f50726f6d69736520616c726561647920736574746c65642e0000000000000000600082015250565b6000611aec6018836118a5565b9150611af782611ab6565b602082019050919050565b60006020820190508181036000830152611b1b81611adf565b9050919050565b7f4e487b7100000000000000000000000000000000000000000000000000000000600052600160045260246000fd5b7f4e487b7100000000000000000000000000000000000000000000000000000000600052602260045260246000fd5b60006002820490506001821680611b9857607f821691505b602082108103611bab57611baa611b51565b5b50919050565b60008190508160005260206000209050919050565b60008154611bd381611b80565b611bdd81866118a5565b94506001821660008114611bf85760018114611c0e57611c41565b60ff198316865281151560200286019350611c41565b611c1785611bb1565b60005b83811015611c3957815481890152600182019150602081019050611c1a565b808801955050505b50505092915050565b6000608082019050611c5f600083018761120e565b611c6c602083018661120e565b8181036040830152611c7e8185611bc6565b9050611c8d606083018461120e565b95945050505050565b7f496e76616c696420616464726573732e00000000000000000000000000000000600082015250565b6000611ccc6010836118a5565b9150611cd782611c96565b602082019050919050565b60006020820190508181036000830152611cfb81611cbf565b9050919050565b7f43616e6e6f7420626520616e20656d7074792070726f6d697365210000000000600082015250565b6000611d38601b836118a5565b9150611d4382611d02565b602082019050919050565b60006020820190508181036000830152611d6781611d2b565b9050919050565b7f457870697261746f6e2073686f756c6420626520696e2074686520667574757260008201527f652e000000000000000000000000000000000000000000000000000000000000602082015250565b6000611dca6022836118a5565b9150611dd582611d6e565b604082019050919050565b60006020820190508181036000830152611df981611dbd565b9050919050565b60006020601f8301049050919050565b600082821b905092915050565b600060088302611e4d7fffffffffffffffffffffffffffffffffffffffffffffffffffffffffffffffff82611e10565b611e578683611e10565b95508019841693508086168417925050509392505050565b6000819050919050565b6000611e94611e8f611e8a84611204565b611e6f565b611204565b9050919050565b6000819050919050565b611eae83611e79565b611ec2611eba82611e9b565b848454611e1d565b825550505050565b600090565b611ed7611eca565b611ee2818484611ea5565b505050565b5b81811015611f0657611efb600082611ecf565b600181019050611ee8565b5050565b601f821115611f4b57611f1c81611bb1565b611f2584611e00565b81016020851015611f34578190505b611f48611f4085611e00565b830182611ee7565b50505b505050565b600082821c905092915050565b6000611f6e60001984600802611f50565b1980831691505092915050565b6000611f878383611f5d565b9150826002028217905092915050565b611fa0826112f5565b67ffffffffffffffff811115611fb957611fb8611531565b5b611fc38254611b80565b611fce828285611f0a565b600060209050601f8311600181146120015760008415611fef578287015190505b611ff98582611f7b565b865550612061565b601f19841661200f86611bb1565b60005b8281101561203757848901518255600182019150602085019450602081019050612012565b868310156120545784890151612050601f891682611f5d565b8355505b6001600288020188555050505b505050505050565b600060808201905061207e600083018761120e565b61208b602083018661120e565b818103604083015261209d81856118b6565b90506120ac606083018461120e565b9594505050505056fea2646970667358221220931afa262fdc24d36dfb619cf3235ee6b48c71c4c0db591f200ad51ce948155464736f6c63430008120033",
  "linkReferences": {},
  "deployedLinkReferences": {}
}